{
  "contractName": "mockApprover",
  "abi": [
    {
      "constant": true,
      "inputs": [],
      "name": "mockReceiver",
      "outputs": [
        {
          "name": "",
          "type": "address"
        }
      ],
      "payable": false,
      "stateMutability": "view",
      "type": "function"
    },
    {
      "constant": true,
      "inputs": [],
      "name": "tokenContract",
      "outputs": [
        {
          "name": "",
          "type": "address"
        }
      ],
      "payable": false,
      "stateMutability": "view",
      "type": "function"
    },
    {
      "inputs": [
        {
          "name": "_tokenContract",
          "type": "address"
        },
        {
          "name": "_mockReceiver",
          "type": "address"
        }
      ],
      "payable": false,
      "stateMutability": "nonpayable",
      "type": "constructor"
    },
    {
      "constant": false,
      "inputs": [
        {
          "name": "_amount",
          "type": "uint256"
        },
        {
          "name": "_who",
          "type": "address"
        }
      ],
      "name": "sendTo",
      "outputs": [],
      "payable": false,
      "stateMutability": "nonpayable",
      "type": "function"
    }
  ],
  "bytecode": "0x608060405234801561001057600080fd5b5060405160408061046a8339810180604052810190808051906020019092919080519060200190929190505050816000806101000a81548173ffffffffffffffffffffffffffffffffffffffff021916908373ffffffffffffffffffffffffffffffffffffffff16021790555080600160006101000a81548173ffffffffffffffffffffffffffffffffffffffff021916908373ffffffffffffffffffffffffffffffffffffffff160217905550505061039b806100cf6000396000f300608060405260043610610057576000357c0100000000000000000000000000000000000000000000000000000000900463ffffffff16806306a1e97a1461005c57806355a373d6146100b3578063b3d056781461010a575b600080fd5b34801561006857600080fd5b50610071610157565b604051808273ffffffffffffffffffffffffffffffffffffffff1673ffffffffffffffffffffffffffffffffffffffff16815260200191505060405180910390f35b3480156100bf57600080fd5b506100c861017d565b604051808273ffffffffffffffffffffffffffffffffffffffff1673ffffffffffffffffffffffffffffffffffffffff16815260200191505060405180910390f35b34801561011657600080fd5b5061015560048036038101908080359060200190929190803573ffffffffffffffffffffffffffffffffffffffff1690602001909291905050506101a2565b005b600160009054906101000a900473ffffffffffffffffffffffffffffffffffffffff1681565b6000809054906101000a900473ffffffffffffffffffffffffffffffffffffffff1681565b6000809054906101000a900473ffffffffffffffffffffffffffffffffffffffff1673ffffffffffffffffffffffffffffffffffffffff1663cae9ca51600160009054906101000a900473ffffffffffffffffffffffffffffffffffffffff168461020c8561033d565b6040518463ffffffff167c0100000000000000000000000000000000000000000000000000000000028152600401808473ffffffffffffffffffffffffffffffffffffffff1673ffffffffffffffffffffffffffffffffffffffff16815260200183815260200180602001828103825283818151815260200191508051906020019080838360005b838110156102af578082015181840152602081019050610294565b50505050905090810190601f1680156102dc5780820380516001836020036101000a031916815260200191505b50945050505050602060405180830381600087803b1580156102fd57600080fd5b505af1158015610311573d6000803e3d6000fd5b505050506040513d602081101561032757600080fd5b8101908080519060200190929190505050505050565b6060604051827414000000000000000000000000000000000000000018601482015260348101604052809150509190505600a165627a7a72305820aa71ae500e4541b1969e6acdb58f39619e713f33b703767578ade3f5c42ae4230029",
  "source": "pragma solidity ^0.4.24;\n\ncontract Token {\n\tfunction transfer(address _to, uint256 _value) public returns (bool success);\n\tfunction approveAndCall(address _spender, uint _amount, bytes _data) public returns (bool success);\n}\n\ncontract mockApprover {\n\n\tToken public tokenContract;\n  address public mockReceiver;\n\n\tconstructor(address _tokenContract, address _mockReceiver) public {\n\t\ttokenContract = Token(_tokenContract);\n    mockReceiver = _mockReceiver;\n\t}\n\n  function sendTo(uint _amount, address _who) public {\n    tokenContract.approveAndCall(mockReceiver, _amount, toBytes(_who));\n  }\n\n  function toBytes(address a)\n\t\tinternal\n\t\tpure\n\t\treturns\n\t\t(bytes b){\n\t\t   assembly {\n\t\t        let m := mload(0x40)\n\t\t        mstore(add(m, 20), xor(0x140000000000000000000000000000000000000000, a))\n\t\t        mstore(0x40, add(m, 52))\n\t\t        b := m\n\t\t   }\n\t\t}\n}\n",
  "sourcePath": "/home/mittens/Code/Resources/mockApproveAndCall/contracts/mockApprover.sol",
  "compiler": {
    "name": "solc",
    "version": "0.4.24+commit.e67f0147.Emscripten.clang"
  },
  "schemaVersion": "2.0.1",
  "updatedAt": "2018-09-25T14:26:51.637Z"
}