{
  "contractName": "mockReceiver",
  "abi": [
    {
      "constant": true,
      "inputs": [],
      "name": "total",
      "outputs": [
        {
          "name": "",
          "type": "uint256"
        }
      ],
      "payable": false,
      "stateMutability": "view",
      "type": "function"
    },
    {
      "constant": true,
      "inputs": [],
      "name": "tokenContract",
      "outputs": [
        {
          "name": "",
          "type": "address"
        }
      ],
      "payable": false,
      "stateMutability": "view",
      "type": "function"
    },
    {
      "constant": true,
      "inputs": [],
      "name": "fromAddress",
      "outputs": [
        {
          "name": "",
          "type": "address"
        }
      ],
      "payable": false,
      "stateMutability": "view",
      "type": "function"
    },
    {
      "constant": true,
      "inputs": [],
      "name": "tokenAddress",
      "outputs": [
        {
          "name": "",
          "type": "address"
        }
      ],
      "payable": false,
      "stateMutability": "view",
      "type": "function"
    },
    {
      "constant": true,
      "inputs": [],
      "name": "userAddress",
      "outputs": [
        {
          "name": "",
          "type": "address"
        }
      ],
      "payable": false,
      "stateMutability": "view",
      "type": "function"
    },
    {
      "inputs": [
        {
          "name": "_tokenContract",
          "type": "address"
        }
      ],
      "payable": false,
      "stateMutability": "nonpayable",
      "type": "constructor"
    },
    {
      "constant": false,
      "inputs": [
        {
          "name": "from",
          "type": "address"
        },
        {
          "name": "tokens",
          "type": "uint256"
        },
        {
          "name": "token",
          "type": "address"
        },
        {
          "name": "data",
          "type": "bytes"
        }
      ],
      "name": "receiveApproval",
      "outputs": [],
      "payable": false,
      "stateMutability": "nonpayable",
      "type": "function"
    }
  ],
  "bytecode": "0x608060405234801561001057600080fd5b506040516020806104ef83398101806040528101908080519060200190929190505050806000806101000a81548173ffffffffffffffffffffffffffffffffffffffff021916908373ffffffffffffffffffffffffffffffffffffffff1602179055505061046c806100836000396000f300608060405260043610610078576000357c0100000000000000000000000000000000000000000000000000000000900463ffffffff1680632ddbd13a1461007d57806355a373d6146100a857806363d1302c146100ff5780638f4ffcb1146101565780639d76ea5814610209578063e4128fb314610260575b600080fd5b34801561008957600080fd5b506100926102b7565b6040518082815260200191505060405180910390f35b3480156100b457600080fd5b506100bd6102bd565b604051808273ffffffffffffffffffffffffffffffffffffffff1673ffffffffffffffffffffffffffffffffffffffff16815260200191505060405180910390f35b34801561010b57600080fd5b506101146102e2565b604051808273ffffffffffffffffffffffffffffffffffffffff1673ffffffffffffffffffffffffffffffffffffffff16815260200191505060405180910390f35b34801561016257600080fd5b50610207600480360381019080803573ffffffffffffffffffffffffffffffffffffffff16906020019092919080359060200190929190803573ffffffffffffffffffffffffffffffffffffffff169060200190929190803590602001908201803590602001908080601f0160208091040260200160405190810160405280939291908181526020018383808284378201915050505050509192919290505050610308565b005b34801561021557600080fd5b5061021e6103e6565b604051808273ffffffffffffffffffffffffffffffffffffffff1673ffffffffffffffffffffffffffffffffffffffff16815260200191505060405180910390f35b34801561026c57600080fd5b5061027561040c565b604051808273ffffffffffffffffffffffffffffffffffffffff1673ffffffffffffffffffffffffffffffffffffffff16815260200191505060405180910390f35b60045481565b6000809054906101000a900473ffffffffffffffffffffffffffffffffffffffff1681565b600360009054906101000a900473ffffffffffffffffffffffffffffffffffffffff1681565b600061031382610432565b905080600160006101000a81548173ffffffffffffffffffffffffffffffffffffffff021916908373ffffffffffffffffffffffffffffffffffffffff1602179055508360048190555082600260006101000a81548173ffffffffffffffffffffffffffffffffffffffff021916908373ffffffffffffffffffffffffffffffffffffffff16021790555084600360006101000a81548173ffffffffffffffffffffffffffffffffffffffff021916908373ffffffffffffffffffffffffffffffffffffffff1602179055505050505050565b600260009054906101000a900473ffffffffffffffffffffffffffffffffffffffff1681565b600160009054906101000a900473ffffffffffffffffffffffffffffffffffffffff1681565b6000601482015190509190505600a165627a7a7230582085cf91111b88751368a48f78ff554aba428683c5380fa405fb8ad7f6e77097620029",
  "source": "pragma solidity ^0.4.24;\n\ncontract Token {\n\tfunction transfer(address _to, uint256 _value) public returns (bool success);\n\tfunction approveAndCall(address _spender, uint _amount, bytes _data) public returns (bool success);\n}\n\ncontract ApproveAndCallFallBack {\n  function receiveApproval(address from, uint tokens, address token, bytes data) public;\n}\n\n\ncontract mockReceiver {\n\n\tToken public tokenContract;\n\n\taddress public userAddress;\n\taddress public tokenAddress;\n\taddress public fromAddress;\n\tuint public total;\n\n\n\tconstructor(address _tokenContract) public {\n\t\ttokenContract = Token(_tokenContract);\n\t}\n\n\tfunction receiveApproval(address from, uint tokens, address token, bytes data) public {\n\t\taddress x = bytesToAddress(data);\n\t\tuserAddress = x;\n\t\ttotal = tokens;\n\t\ttokenAddress = token;\n\t\tfromAddress = from;\n\t}\n\n  function bytesToAddress(bytes bys)\n  internal\n  pure\n  returns (address addr) {\n    assembly {\n      addr := mload(add(bys,20))\n      }\n  }\n\n\n}\n",
  "sourcePath": "/home/mittens/Code/Resources/mockApproveAndCall/contracts/mockReceiver.sol",
  "compiler": {
    "name": "solc",
    "version": "0.4.24+commit.e67f0147.Emscripten.clang"
  },
  "schemaVersion": "2.0.1",
  "updatedAt": "2018-09-25T14:27:55.345Z"
}